{
  "contractName": "Social",
  "abi": [
    {
      "constant": true,
      "inputs": [
        {
          "name": "",
          "type": "uint256"
        }
      ],
      "name": "persons",
      "outputs": [
        {
          "name": "id",
          "type": "uint256"
        },
        {
          "name": "name",
          "type": "string"
        }
      ],
      "payable": false,
      "stateMutability": "view",
      "type": "function"
    },
    {
      "constant": true,
      "inputs": [
        {
          "name": "",
          "type": "address"
        }
      ],
      "name": "users",
      "outputs": [
        {
          "name": "",
          "type": "uint256"
        }
      ],
      "payable": false,
      "stateMutability": "view",
      "type": "function"
    },
    {
      "constant": true,
      "inputs": [],
      "name": "personcount",
      "outputs": [
        {
          "name": "",
          "type": "uint256"
        }
      ],
      "payable": false,
      "stateMutability": "view",
      "type": "function"
    },
    {
      "inputs": [],
      "payable": false,
      "stateMutability": "nonpayable",
      "type": "constructor"
    },
    {
      "anonymous": false,
      "inputs": [
        {
          "indexed": false,
          "name": "personName",
          "type": "string"
        }
      ],
      "name": "signUpEvent",
      "type": "event"
    },
    {
      "constant": false,
      "inputs": [
        {
          "name": "name",
          "type": "string"
        }
      ],
      "name": "addperson",
      "outputs": [],
      "payable": false,
      "stateMutability": "nonpayable",
      "type": "function"
    }
  ],
  "bytecode": "0x608060405234801561001057600080fd5b5060006040805190810160405280600081526020016040805190810160405280600681526020017f4164697479610000000000000000000000000000000000000000000000000000815250815250908060018154018082558091505090600182039060005260206000209060020201600090919290919091506000820151816000015560208201518160010190805190602001906100af929190610161565b5050505060006040805190810160405280600181526020016040805190810160405280600481526020017f556461790000000000000000000000000000000000000000000000000000000081525081525090806001815401808255809150509060018203906000526020600020906002020160009091929091909150600082015181600001556020820151816001019080519060200190610151929190610161565b5050505060028081905550610206565b828054600181600116156101000203166002900490600052602060002090601f016020900481019282601f106101a257805160ff19168380011785556101d0565b828001600101855582156101d0579182015b828111156101cf5782518255916020019190600101906101b4565b5b5090506101dd91906101e1565b5090565b61020391905b808211156101ff5760008160009055506001016101e7565b5090565b90565b6105d3806102156000396000f300608060405260043610610062576000357c0100000000000000000000000000000000000000000000000000000000900463ffffffff1680631d0a0e4d14610067578063a2f9eac6146100d0578063a87430ba1461017d578063b8ea86bd146101d4575b600080fd5b34801561007357600080fd5b506100ce600480360381019080803590602001908201803590602001908080601f01602080910402602001604051908101604052809392919081815260200183838082843782019150505050505091929192905050506101ff565b005b3480156100dc57600080fd5b506100fb60048036038101908080359060200190929190505050610419565b6040518083815260200180602001828103825283818151815260200191508051906020019080838360005b83811015610141578082015181840152602081019050610126565b50505050905090810190601f16801561016e5780820380516001836020036101000a031916815260200191505b50935050505060405180910390f35b34801561018957600080fd5b506101be600480360381019080803573ffffffffffffffffffffffffffffffffffffffff1690602001909291905050506104e4565b6040518082815260200191505060405180910390f35b3480156101e057600080fd5b506101e96104fc565b6040518082815260200191505060405180910390f35b6000600160003373ffffffffffffffffffffffffffffffffffffffff1673ffffffffffffffffffffffffffffffffffffffff168152602001908152602001600020541415156102b6576040517f08c379a00000000000000000000000000000000000000000000000000000000081526004018080602001828103825260138152602001807f5573657220616c7265616479206578697374730000000000000000000000000081525060200191505060405180910390fd5b6000604080519081016040528060025481526020018381525090806001815401808255809150509060018203906000526020600020906002020160009091929091909150600082015181600001556020820151816001019080519060200190610320929190610502565b5050505060026000815480929190600101919050555060018060003373ffffffffffffffffffffffffffffffffffffffff1673ffffffffffffffffffffffffffffffffffffffff168152602001908152602001600020819055507f7597b42d92376a8d40af33ad5b5110e81212d8b9ded015e88276f6d575fa659c816040518080602001828103825283818151815260200191508051906020019080838360005b838110156103dc5780820151818401526020810190506103c1565b50505050905090810190601f1680156104095780820380516001836020036101000a031916815260200191505b509250505060405180910390a150565b60008181548110151561042857fe5b9060005260206000209060020201600091509050806000015490806001018054600181600116156101000203166002900480601f0160208091040260200160405190810160405280929190818152602001828054600181600116156101000203166002900480156104da5780601f106104af576101008083540402835291602001916104da565b820191906000526020600020905b8154815290600101906020018083116104bd57829003601f168201915b5050505050905082565b60016020528060005260406000206000915090505481565b60025481565b828054600181600116156101000203166002900490600052602060002090601f016020900481019282601f1061054357805160ff1916838001178555610571565b82800160010185558215610571579182015b82811115610570578251825591602001919060010190610555565b5b50905061057e9190610582565b5090565b6105a491905b808211156105a0576000816000905550600101610588565b5090565b905600a165627a7a72305820d83e96b4e3e09eff62306937aa35b837f7e48819ab7d5ae438b8176fe3d8dcca0029",
  "source": "pragma solidity 0.4.24;\n\ncontract Social {\n    // Read/write candidate\n\n    struct Person{\n    \tuint id;\n    \tstring name;\n    }\n    event signUpEvent(string personName);\n    Person[] public persons;\n    mapping(address =>uint) public users;\n    uint public personcount;\n\n    // Constructor\n    constructor () public {\n        persons.push(Person(0, \"Aditya\"));\n        persons.push(Person(1, \"Uday\"));\n    \tpersoncount=2;\n    }\n\n    function addperson(string name) public{\n        require(users[msg.sender] == 0, \"User already exists\");\n        persons.push(Person(personcount, name));\n    \tpersoncount ++;\n        users[msg.sender] = 1;\n        emit signUpEvent(name);\n    }\n}",
  "sourcePath": "/home/maquina/socialMedia/contracts/Social.sol",
  "compiler": {
    "name": "solc",
    "version": "0.4.24+commit.e67f0147.Emscripten.clang"
  },
  "schemaVersion": "2.0.1",
  "updatedAt": "2018-11-14T05:59:19.640Z"
}