{
  "contractName": "Social",
  "abi": [
    {
      "constant": true,
      "inputs": [
        {
          "name": "",
          "type": "uint256"
        }
      ],
      "name": "persons",
      "outputs": [
        {
          "name": "id",
          "type": "uint256"
        },
        {
          "name": "name",
          "type": "string"
        }
      ],
      "payable": false,
      "stateMutability": "view",
      "type": "function"
    },
    {
      "constant": true,
      "inputs": [],
      "name": "personcount",
      "outputs": [
        {
          "name": "",
          "type": "uint256"
        }
      ],
      "payable": false,
      "stateMutability": "view",
      "type": "function"
    },
    {
      "inputs": [],
      "payable": false,
      "stateMutability": "nonpayable",
      "type": "constructor"
    }
  ],
  "bytecode": "0x608060405234801561001057600080fd5b506040805190810160405280600081526020016040805190810160405280600681526020017f41646974796100000000000000000000000000000000000000000000000000008152508152506000808081526020019081526020016000206000820151816000015560208201518160010190805190602001906100949291906100a4565b5090505060018081905550610149565b828054600181600116156101000203166002900490600052602060002090601f016020900481019282601f106100e557805160ff1916838001178555610113565b82800160010185558215610113579182015b828111156101125782518255916020019190600101906100f7565b5b5090506101209190610124565b5090565b61014691905b8082111561014257600081600090555060010161012a565b5090565b90565b610217806101586000396000f30060806040526004361061004c576000357c0100000000000000000000000000000000000000000000000000000000900463ffffffff168063a2f9eac614610051578063b8ea86bd146100fe575b600080fd5b34801561005d57600080fd5b5061007c60048036038101908080359060200190929190505050610129565b6040518083815260200180602001828103825283818151815260200191508051906020019080838360005b838110156100c25780820151818401526020810190506100a7565b50505050905090810190601f1680156100ef5780820380516001836020036101000a031916815260200191505b50935050505060405180910390f35b34801561010a57600080fd5b506101136101e5565b6040518082815260200191505060405180910390f35b6000602052806000526040600020600091509050806000015490806001018054600181600116156101000203166002900480601f0160208091040260200160405190810160405280929190818152602001828054600181600116156101000203166002900480156101db5780601f106101b0576101008083540402835291602001916101db565b820191906000526020600020905b8154815290600101906020018083116101be57829003601f168201915b5050505050905082565b600154815600a165627a7a72305820f2c949b090b991ae540fb3ea14489e27aa4614603b4ddfaa17a1905a46ce68e80029",
  "source": "pragma solidity 0.4.24;\n\ncontract Social {\n    // Read/write candidate\n\n    struct Person{\n    \tuint id;\n    \tstring name;\n    }\n\n    mapping(uint => Person) public persons;\n    uint public personcount;\n\n    // Constructor\n    constructor () public {\n        persons[0] = Person(0, \"Aditya\");\n    \tpersoncount=1;\n    }\n\n    function addperson(string name) private{\n        persons[personcount] = Person(personcount, name);\n    \tpersoncount ++;\n    }\n}",
  "sourcePath": "/home/uday/socialMedia/contracts/Social.sol",
  "compiler": {
    "name": "solc",
    "version": "0.4.24+commit.e67f0147.Emscripten.clang"
  },
  "schemaVersion": "2.0.1",
  "updatedAt": "2018-11-12T16:37:01.385Z"
}