{
  "contractName": "Social",
  "abi": [
    {
      "constant": true,
      "inputs": [],
      "name": "tweetcount",
      "outputs": [
        {
          "name": "",
          "type": "uint256"
        }
      ],
      "payable": false,
      "stateMutability": "view",
      "type": "function"
    },
    {
      "constant": true,
      "inputs": [
        {
          "name": "",
          "type": "uint256"
        }
      ],
      "name": "persons",
      "outputs": [
        {
          "name": "id",
          "type": "uint256"
        },
        {
          "name": "name",
          "type": "string"
        },
        {
          "name": "followers",
          "type": "uint256"
        }
      ],
      "payable": false,
      "stateMutability": "view",
      "type": "function"
    },
    {
      "constant": true,
      "inputs": [
        {
          "name": "",
          "type": "address"
        }
      ],
      "name": "users",
      "outputs": [
        {
          "name": "",
          "type": "uint256"
        }
      ],
      "payable": false,
      "stateMutability": "view",
      "type": "function"
    },
    {
      "constant": true,
      "inputs": [],
      "name": "personcount",
      "outputs": [
        {
          "name": "",
          "type": "uint256"
        }
      ],
      "payable": false,
      "stateMutability": "view",
      "type": "function"
    },
    {
      "constant": true,
      "inputs": [
        {
          "name": "",
          "type": "uint256"
        }
      ],
      "name": "tweets",
      "outputs": [
        {
          "name": "id",
          "type": "uint256"
        },
        {
          "name": "userId",
          "type": "uint256"
        },
        {
          "name": "text",
          "type": "string"
        }
      ],
      "payable": false,
      "stateMutability": "view",
      "type": "function"
    },
    {
      "inputs": [],
      "payable": false,
      "stateMutability": "nonpayable",
      "type": "constructor"
    },
    {
      "anonymous": false,
      "inputs": [
        {
          "indexed": false,
          "name": "personName",
          "type": "string"
        }
      ],
      "name": "signUpEvent",
      "type": "event"
    },
    {
      "anonymous": false,
      "inputs": [],
      "name": "tweetEvent",
      "type": "event"
    },
    {
      "anonymous": false,
      "inputs": [
        {
          "indexed": false,
          "name": "userId",
          "type": "uint256"
        },
        {
          "indexed": false,
          "name": "senderId",
          "type": "address"
        }
      ],
      "name": "followEvent",
      "type": "event"
    },
    {
      "constant": false,
      "inputs": [
        {
          "name": "name",
          "type": "string"
        }
      ],
      "name": "addperson",
      "outputs": [],
      "payable": false,
      "stateMutability": "nonpayable",
      "type": "function"
    },
    {
      "constant": false,
      "inputs": [
        {
          "name": "text",
          "type": "string"
        }
      ],
      "name": "addtweet",
      "outputs": [],
      "payable": false,
      "stateMutability": "nonpayable",
      "type": "function"
    },
    {
      "constant": false,
      "inputs": [
        {
          "name": "userId",
          "type": "uint256"
        }
      ],
      "name": "followUser",
      "outputs": [],
      "payable": false,
      "stateMutability": "nonpayable",
      "type": "function"
    }
  ],
  "bytecode": "0x6080604052600060035560006004553480156200001b57600080fd5b506000608060405190810160405280600181526020016040805190810160405280600681526020017f4164697479610000000000000000000000000000000000000000000000000000815250815260200160006040519080825280602002602001820160405280156200009d5781602001602082028038833980820191505090505b508152602001600081525090806001815401808255809150509060018203906000526020600020906004020160009091929091909150600082015181600001556020820151816001019080519060200190620000fb929190620003b6565b5060408201518160020190805190602001906200011a9291906200043d565b50606082015181600301555050506000608060405190810160405280600281526020016040805190810160405280600481526020017f556461790000000000000000000000000000000000000000000000000000000081525081526020016000604051908082528060200260200182016040528015620001a95781602001602082028038833980820191505090505b50815260200160008152509080600181540180825580915050906001820390600052602060002090600402016000909192909190915060008201518160000155602082015181600101908051906020019062000207929190620003b6565b506040820151816002019080519060200190620002269291906200043d565b5060608201518160030155505050600160606040519081016040528060018152602001600181526020016040805190810160405280600b81526020017f48656c6c6f20576f726c640000000000000000000000000000000000000000008152508152509080600181540180825580915050906001820390600052602060002090600302016000909192909190915060008201518160000155602082015181600101556040820151816002019080519060200190620002e6929190620003b6565b50505050600160606040519081016040528060028152602001600281526020016040805190810160405280600781526020017f426f6e6a6f75720000000000000000000000000000000000000000000000000081525081525090806001815401808255809150509060018203906000526020600020906003020160009091929091909150600082015181600001556020820151816001015560408201518160020190805190602001906200039c929190620003b6565b5050505060026004819055506002600381905550620004b7565b828054600181600116156101000203166002900490600052602060002090601f016020900481019282601f10620003f957805160ff19168380011785556200042a565b828001600101855582156200042a579182015b82811115620004295782518255916020019190600101906200040c565b5b5090506200043991906200048f565b5090565b8280548282559060005260206000209081019282156200047c579160200282015b828111156200047b5782518255916020019190600101906200045e565b5b5090506200048b91906200048f565b5090565b620004b491905b80821115620004b057600081600090555060010162000496565b5090565b90565b610b5380620004c76000396000f30060806040526004361061008e576000357c0100000000000000000000000000000000000000000000000000000000900463ffffffff1680630a3c6801146100935780631d0a0e4d146100c05780636197085f146101295780639a50a88614610154578063a2f9eac6146101bd578063a87430ba14610271578063b8ea86bd146102c8578063e8d857b0146102f3575b600080fd5b34801561009f57600080fd5b506100be600480360381019080803590602001909291905050506103a7565b005b3480156100cc57600080fd5b50610127600480360381019080803590602001908201803590602001908080601f01602080910402602001604051908101604052809392919081815260200183838082843782019150505050505091929192905050506104ef565b005b34801561013557600080fd5b5061013e610770565b6040518082815260200191505060405180910390f35b34801561016057600080fd5b506101bb600480360381019080803590602001908201803590602001908080601f0160208091040260200160405190810160405280939291908181526020018383808284378201915050505050509192919290505050610776565b005b3480156101c957600080fd5b506101e860048036038101908080359060200190929190505050610875565b6040518084815260200180602001838152602001828103825284818151815260200191508051906020019080838360005b83811015610234578082015181840152602081019050610219565b50505050905090810190601f1680156102615780820380516001836020036101000a031916815260200191505b5094505050505060405180910390f35b34801561027d57600080fd5b506102b2600480360381019080803573ffffffffffffffffffffffffffffffffffffffff169060200190929190505050610946565b6040518082815260200191505060405180910390f35b3480156102d457600080fd5b506102dd61095e565b6040518082815260200191505060405180910390f35b3480156102ff57600080fd5b5061031e60048036038101908080359060200190929190505050610964565b6040518084815260200183815260200180602001828103825283818151815260200191508051906020019080838360005b8381101561036a57808201518184015260208101905061034f565b50505050905090810190601f1680156103975780820380516001836020036101000a031916815260200191505b5094505050505060405180910390f35b60016000600183038154811015156103bb57fe5b906000526020600020906004020160030154016000600183038154811015156103e057fe5b90600052602060002090600402016003018190555060006001600260003373ffffffffffffffffffffffffffffffffffffffff1673ffffffffffffffffffffffffffffffffffffffff168152602001908152602001600020540381548110151561044657fe5b90600052602060002090600402016002018190806001815401808255809150509060018203906000526020600020016000909192909190915055507ff47b6f22d4011941b024dbbcdf7f5effb430076b3343217001aadc27a2d26be78133604051808381526020018273ffffffffffffffffffffffffffffffffffffffff1673ffffffffffffffffffffffffffffffffffffffff1681526020019250505060405180910390a150565b6000600260003373ffffffffffffffffffffffffffffffffffffffff1673ffffffffffffffffffffffffffffffffffffffff168152602001908152602001600020541415156105a6576040517f08c379a00000000000000000000000000000000000000000000000000000000081526004018080602001828103825260138152602001807f5573657220616c7265616479206578697374730000000000000000000000000081525060200191505060405180910390fd5b6003600081548092919060010191905055506000608060405190810160405280600354815260200183815260200160006040519080825280602002602001820160405280156106045781602001602082028038833980820191505090505b508152602001600081525090806001815401808255809150509060018203906000526020600020906004020160009091929091909150600082015181600001556020820151816001019080519060200190610660929190610a35565b50604082015181600201908051906020019061067d929190610ab5565b5060608201518160030155505050600354600260003373ffffffffffffffffffffffffffffffffffffffff1673ffffffffffffffffffffffffffffffffffffffff168152602001908152602001600020819055507f7597b42d92376a8d40af33ad5b5110e81212d8b9ded015e88276f6d575fa659c816040518080602001828103825283818151815260200191508051906020019080838360005b83811015610733578082015181840152602081019050610718565b50505050905090810190601f1680156107605780820380516001836020036101000a031916815260200191505b509250505060405180910390a150565b60045481565b60046000815480929190600101919050555060016060604051908101604052806004548152602001600260003373ffffffffffffffffffffffffffffffffffffffff1673ffffffffffffffffffffffffffffffffffffffff168152602001908152602001600020548152602001838152509080600181540180825580915050906001820390600052602060002090600302016000909192909190915060008201518160000155602082015181600101556040820151816002019080519060200190610842929190610a35565b505050507f74cfcdb04309804678b2b547ed61a8c42f41687ec0ad7d6bfdba54727e38100860405160405180910390a150565b60008181548110151561088457fe5b9060005260206000209060040201600091509050806000015490806001018054600181600116156101000203166002900480601f0160208091040260200160405190810160405280929190818152602001828054600181600116156101000203166002900480156109365780601f1061090b57610100808354040283529160200191610936565b820191906000526020600020905b81548152906001019060200180831161091957829003601f168201915b5050505050908060030154905083565b60026020528060005260406000206000915090505481565b60035481565b60018181548110151561097357fe5b9060005260206000209060030201600091509050806000015490806001015490806002018054600181600116156101000203166002900480601f016020809104026020016040519081016040528092919081815260200182805460018160011615610100020316600290048015610a2b5780601f10610a0057610100808354040283529160200191610a2b565b820191906000526020600020905b815481529060010190602001808311610a0e57829003601f168201915b5050505050905083565b828054600181600116156101000203166002900490600052602060002090601f016020900481019282601f10610a7657805160ff1916838001178555610aa4565b82800160010185558215610aa4579182015b82811115610aa3578251825591602001919060010190610a88565b5b509050610ab19190610b02565b5090565b828054828255906000526020600020908101928215610af1579160200282015b82811115610af0578251825591602001919060010190610ad5565b5b509050610afe9190610b02565b5090565b610b2491905b80821115610b20576000816000905550600101610b08565b5090565b905600a165627a7a72305820cf02bd4fb8e437d361d3876298aa7949a70f2e5b677cab79332ea09dac10140d0029",
  "source": "pragma solidity 0.4.24;\n\ncontract Social {\n    // Read/write candidate\n\n    struct Person{\n    \tuint id;\n    \tstring name;\n        uint[] following;\n        uint followers;\n    }\n\n    struct Tweet{\n        uint id;\n        uint userId;\n        string text;\n    }\n\n    event signUpEvent(string personName);\n    event tweetEvent();\n    event followEvent(uint userId,address senderId);\n    Person[] public persons;\n    Tweet[] public tweets;\n\n    mapping(address =>uint) public users;\n    uint public personcount = 0;\n    uint public tweetcount = 0;\n\n    // Constructor\n    constructor () public {\n        persons.push(Person(1, \"Aditya\", new uint[](0), 0));\n        persons.push(Person(2, \"Uday\", new uint[](0), 0));\n        tweets.push(Tweet(1, 1,\"Hello World\"));\n        tweets.push(Tweet(2, 2,\"Bonjour\"));\n        tweetcount = 2;\n    \tpersoncount = 2;\n    }\n\n    function addperson(string name) public{\n        require(users[msg.sender] == 0, \"User already exists\");\n    \tpersoncount++;\n        persons.push(Person(personcount, name, new uint[](0), 0));\n        users[msg.sender] = personcount;\n        emit signUpEvent(name);\n    }\n    function addtweet(string text) public{\n        tweetcount++;\n        tweets.push(Tweet(tweetcount,users[msg.sender],text));\n        emit tweetEvent();\n    }\n    function followUser(uint userId) public{\n        persons[userId-1].followers = persons[userId-1].followers + 1;\n        persons[users[msg.sender]-1].following.push(userId);\n        emit followEvent(userId,msg.sender);\n    }\n}",
  "sourcePath": "/home/maquina/socialMedia/contracts/Social.sol",
  "compiler": {
    "name": "solc",
    "version": "0.4.24+commit.e67f0147.Emscripten.clang"
  },
  "schemaVersion": "2.0.1",
  "updatedAt": "2018-11-14T18:15:11.355Z"
}